{
    "contractName": "NFTWorldExchangeImplementationV1",
    "abi": [
        {
            "anonymous": false,
            "inputs": [
                {
                    "indexed": false,
                    "internalType": "string",
                    "name": "collectionName",
                    "type": "string"
                },
                {
                    "indexed": false,
                    "internalType": "address",
                    "name": "_address",
                    "type": "address"
                }
            ],
            "name": "CollectionSupportAdded",
            "type": "event"
        },
        {
            "anonymous": false,
            "inputs": [
                {
                    "indexed": true,
                    "internalType": "address",
                    "name": "from",
                    "type": "address"
                },
                {
                    "indexed": true,
                    "internalType": "uint256",
                    "name": "value",
                    "type": "uint256"
                }
            ],
            "name": "MetaverseCoinDeposit",
            "type": "event"
        },
        {
            "anonymous": false,
            "inputs": [
                {
                    "indexed": true,
                    "internalType": "address",
                    "name": "to",
                    "type": "address"
                },
                {
                    "indexed": true,
                    "internalType": "uint256",
                    "name": "value",
                    "type": "uint256"
                }
            ],
            "name": "MetaverseCoinWithdraw",
            "type": "event"
        },
        {
            "anonymous": false,
            "inputs": [
                {
                    "indexed": true,
                    "internalType": "bytes32",
                    "name": "role",
                    "type": "bytes32"
                },
                {
                    "indexed": true,
                    "internalType": "bytes32",
                    "name": "previousAdminRole",
                    "type": "bytes32"
                },
                {
                    "indexed": true,
                    "internalType": "bytes32",
                    "name": "newAdminRole",
                    "type": "bytes32"
                }
            ],
            "name": "RoleAdminChanged",
            "type": "event"
        },
        {
            "anonymous": false,
            "inputs": [
                {
                    "indexed": true,
                    "internalType": "bytes32",
                    "name": "role",
                    "type": "bytes32"
                },
                {
                    "indexed": true,
                    "internalType": "address",
                    "name": "account",
                    "type": "address"
                },
                {
                    "indexed": true,
                    "internalType": "address",
                    "name": "sender",
                    "type": "address"
                }
            ],
            "name": "RoleGranted",
            "type": "event"
        },
        {
            "anonymous": false,
            "inputs": [
                {
                    "indexed": true,
                    "internalType": "bytes32",
                    "name": "role",
                    "type": "bytes32"
                },
                {
                    "indexed": true,
                    "internalType": "address",
                    "name": "account",
                    "type": "address"
                },
                {
                    "indexed": true,
                    "internalType": "address",
                    "name": "sender",
                    "type": "address"
                }
            ],
            "name": "RoleRevoked",
            "type": "event"
        },
        {
            "anonymous": false,
            "inputs": [
                {
                    "indexed": true,
                    "internalType": "address",
                    "name": "from",
                    "type": "address"
                },
                {
                    "indexed": true,
                    "internalType": "string",
                    "name": "collectionName",
                    "type": "string"
                },
                {
                    "indexed": true,
                    "internalType": "uint256[]",
                    "name": "tokenIds",
                    "type": "uint256[]"
                }
            ],
            "name": "WearableDeposit",
            "type": "event"
        },
        {
            "anonymous": false,
            "inputs": [
                {
                    "indexed": true,
                    "internalType": "address",
                    "name": "to",
                    "type": "address"
                },
                {
                    "indexed": false,
                    "internalType": "string",
                    "name": "collectionName",
                    "type": "string"
                },
                {
                    "indexed": true,
                    "internalType": "uint256",
                    "name": "tokenId",
                    "type": "uint256"
                },
                {
                    "indexed": true,
                    "internalType": "uint256",
                    "name": "amount",
                    "type": "uint256"
                }
            ],
            "name": "WearableExchanged",
            "type": "event"
        },
        {
            "anonymous": false,
            "inputs": [
                {
                    "indexed": true,
                    "internalType": "address",
                    "name": "from",
                    "type": "address"
                },
                {
                    "indexed": false,
                    "internalType": "string",
                    "name": "collectionName",
                    "type": "string"
                },
                {
                    "indexed": true,
                    "internalType": "uint256",
                    "name": "tokenId",
                    "type": "uint256"
                },
                {
                    "indexed": true,
                    "internalType": "uint256",
                    "name": "amount",
                    "type": "uint256"
                }
            ],
            "name": "WearableReturned",
            "type": "event"
        },
        {
            "anonymous": false,
            "inputs": [
                {
                    "indexed": true,
                    "internalType": "address",
                    "name": "to",
                    "type": "address"
                },
                {
                    "indexed": true,
                    "internalType": "string",
                    "name": "collectionName",
                    "type": "string"
                },
                {
                    "indexed": true,
                    "internalType": "uint256[]",
                    "name": "tokenIds",
                    "type": "uint256[]"
                }
            ],
            "name": "WearableWithdraw",
            "type": "event"
        },
        {
            "inputs": [],
            "name": "ADMIN_ROLE",
            "outputs": [
                {
                    "internalType": "bytes32",
                    "name": "",
                    "type": "bytes32"
                }
            ],
            "stateMutability": "view",
            "type": "function"
        },
        {
            "inputs": [],
            "name": "DEFAULT_ADMIN_ROLE",
            "outputs": [
                {
                    "internalType": "bytes32",
                    "name": "",
                    "type": "bytes32"
                }
            ],
            "stateMutability": "view",
            "type": "function"
        },
        {
            "inputs": [
                {
                    "internalType": "address",
                    "name": "_address",
                    "type": "address"
                }
            ],
            "name": "addCollectionSupport",
            "outputs": [],
            "stateMutability": "nonpayable",
            "type": "function"
        },
        {
            "inputs": [],
            "name": "base_percentage",
            "outputs": [
                {
                    "internalType": "uint256",
                    "name": "",
                    "type": "uint256"
                }
            ],
            "stateMutability": "view",
            "type": "function"
        },
        {
            "inputs": [
                {
                    "internalType": "uint256",
                    "name": "_amount",
                    "type": "uint256"
                }
            ],
            "name": "depositMetaverseCoin",
            "outputs": [],
            "stateMutability": "nonpayable",
            "type": "function"
        },
        {
            "inputs": [
                {
                    "internalType": "string",
                    "name": "_collectionName",
                    "type": "string"
                },
                {
                    "internalType": "uint256[]",
                    "name": "_tokenIds",
                    "type": "uint256[]"
                }
            ],
            "name": "depositWearables",
            "outputs": [],
            "stateMutability": "nonpayable",
            "type": "function"
        },
        {
            "inputs": [
                {
                    "internalType": "string",
                    "name": "",
                    "type": "string"
                }
            ],
            "name": "exchangeRates",
            "outputs": [
                {
                    "internalType": "uint256",
                    "name": "",
                    "type": "uint256"
                }
            ],
            "stateMutability": "view",
            "type": "function"
        },
        {
            "inputs": [
                {
                    "internalType": "string",
                    "name": "_collectionName",
                    "type": "string"
                }
            ],
            "name": "getAvailableTokens",
            "outputs": [
                {
                    "internalType": "uint256[]",
                    "name": "",
                    "type": "uint256[]"
                }
            ],
            "stateMutability": "view",
            "type": "function"
        },
        {
            "inputs": [
                {
                    "internalType": "bytes32",
                    "name": "role",
                    "type": "bytes32"
                }
            ],
            "name": "getRoleAdmin",
            "outputs": [
                {
                    "internalType": "bytes32",
                    "name": "",
                    "type": "bytes32"
                }
            ],
            "stateMutability": "view",
            "type": "function"
        },
        {
            "inputs": [
                {
                    "internalType": "string",
                    "name": "_collectionName",
                    "type": "string"
                },
                {
                    "internalType": "uint256",
                    "name": "_itemId",
                    "type": "uint256"
                },
                {
                    "internalType": "uint256",
                    "name": "_tokenId",
                    "type": "uint256"
                }
            ],
            "name": "getWearable",
            "outputs": [],
            "stateMutability": "nonpayable",
            "type": "function"
        },
        {
            "inputs": [
                {
                    "internalType": "bytes32",
                    "name": "role",
                    "type": "bytes32"
                },
                {
                    "internalType": "address",
                    "name": "account",
                    "type": "address"
                }
            ],
            "name": "grantRole",
            "outputs": [],
            "stateMutability": "nonpayable",
            "type": "function"
        },
        {
            "inputs": [
                {
                    "internalType": "bytes32",
                    "name": "role",
                    "type": "bytes32"
                },
                {
                    "internalType": "address",
                    "name": "account",
                    "type": "address"
                }
            ],
            "name": "hasRole",
            "outputs": [
                {
                    "internalType": "bool",
                    "name": "",
                    "type": "bool"
                }
            ],
            "stateMutability": "view",
            "type": "function"
        },
        {
            "inputs": [
                {
                    "internalType": "address",
                    "name": "_metaverseCoin",
                    "type": "address"
                },
                {
                    "internalType": "address",
                    "name": "_admin",
                    "type": "address"
                },
                {
                    "internalType": "address[]",
                    "name": "_collections",
                    "type": "address[]"
                }
            ],
            "name": "initialize",
            "outputs": [],
            "stateMutability": "nonpayable",
            "type": "function"
        },
        {
            "inputs": [],
            "name": "metaverseCoinAddress",
            "outputs": [
                {
                    "internalType": "address",
                    "name": "",
                    "type": "address"
                }
            ],
            "stateMutability": "view",
            "type": "function"
        },
        {
            "inputs": [
                {
                    "internalType": "address",
                    "name": "",
                    "type": "address"
                },
                {
                    "internalType": "address",
                    "name": "",
                    "type": "address"
                },
                {
                    "internalType": "uint256",
                    "name": "",
                    "type": "uint256"
                },
                {
                    "internalType": "bytes",
                    "name": "",
                    "type": "bytes"
                }
            ],
            "name": "onERC721Received",
            "outputs": [
                {
                    "internalType": "bytes4",
                    "name": "",
                    "type": "bytes4"
                }
            ],
            "stateMutability": "nonpayable",
            "type": "function"
        },
        {
            "inputs": [
                {
                    "internalType": "bytes32",
                    "name": "role",
                    "type": "bytes32"
                },
                {
                    "internalType": "address",
                    "name": "account",
                    "type": "address"
                }
            ],
            "name": "renounceRole",
            "outputs": [],
            "stateMutability": "nonpayable",
            "type": "function"
        },
        {
            "inputs": [
                {
                    "internalType": "string",
                    "name": "_collectionName",
                    "type": "string"
                },
                {
                    "internalType": "uint256",
                    "name": "_itemId",
                    "type": "uint256"
                },
                {
                    "internalType": "uint256",
                    "name": "_tokenId",
                    "type": "uint256"
                }
            ],
            "name": "returnWearable",
            "outputs": [],
            "stateMutability": "nonpayable",
            "type": "function"
        },
        {
            "inputs": [
                {
                    "internalType": "bytes32",
                    "name": "role",
                    "type": "bytes32"
                },
                {
                    "internalType": "address",
                    "name": "account",
                    "type": "address"
                }
            ],
            "name": "revokeRole",
            "outputs": [],
            "stateMutability": "nonpayable",
            "type": "function"
        },
        {
            "inputs": [
                {
                    "internalType": "bytes4",
                    "name": "interfaceId",
                    "type": "bytes4"
                }
            ],
            "name": "supportsInterface",
            "outputs": [
                {
                    "internalType": "bool",
                    "name": "",
                    "type": "bool"
                }
            ],
            "stateMutability": "view",
            "type": "function"
        },
        {
            "inputs": [
                {
                    "internalType": "string",
                    "name": "",
                    "type": "string"
                }
            ],
            "name": "wearableContracts",
            "outputs": [
                {
                    "internalType": "address",
                    "name": "",
                    "type": "address"
                }
            ],
            "stateMutability": "view",
            "type": "function"
        },
        {
            "inputs": [
                {
                    "internalType": "uint256",
                    "name": "_amount",
                    "type": "uint256"
                }
            ],
            "name": "withdrawMetaverseCoin",
            "outputs": [],
            "stateMutability": "nonpayable",
            "type": "function"
        },
        {
            "inputs": [
                {
                    "internalType": "string",
                    "name": "_collectionName",
                    "type": "string"
                },
                {
                    "internalType": "uint256[]",
                    "name": "_tokenIds",
                    "type": "uint256[]"
                }
            ],
            "name": "withdrawWearables",
            "outputs": [],
            "stateMutability": "nonpayable",
            "type": "function"
        }
    ],
    "bytecode": "608060405234801561001057600080fd5b506126dd806100206000396000f3fe608060405234801561001057600080fd5b50600436106101425760003560e01c8063519035df116100b85780638dcb097b1161007c5780638dcb097b1461030557806391d148541461031857806399a329e11461032b578063a217fddf1461035f578063d547741f14610367578063ed71b59d1461037a57600080fd5b8063519035df146102975780635e86f7b2146102b757806372129481146102ca57806375b238fc146102dd57806377a24f36146102f257600080fd5b8063248a9ca31161010a578063248a9ca3146101fd5780632ebe1a9d146102205780632f2ff15d1461023357806335053e701461024657806336568abe1461025957806343225acd1461026c57600080fd5b806301ffc9a714610147578063150b7a021461016f57806316bc79e3146101a657806318742703146101bb5780631b51fbec146101d2575b600080fd5b61015a610155366004611dff565b61038d565b60405190151581526020015b60405180910390f35b61018d61017d366004611eeb565b630a85bd0160e11b949350505050565b6040516001600160e01b03199091168152602001610166565b6101b96101b4366004611faf565b6103c4565b005b6101c4609a5481565b604051908152602001610166565b6097546101e5906001600160a01b031681565b6040516001600160a01b039091168152602001610166565b6101c461020b36600461206a565b60009081526065602052604090206001015490565b6101b961022e366004612083565b61064c565b6101b96102413660046120d1565b610b04565b6101b9610254366004612101565b610b2f565b6101b96102673660046120d1565b610b55565b6101c461027a36600461211e565b805160208183018101805160988252928201919093012091525481565b6102aa6102a536600461211e565b610bcf565b604051610166919061215b565b6101b96102c536600461206a565b610e41565b6101b96102d8366004611faf565b61101e565b6101c460008051602061268883398151915281565b6101b961030036600461219f565b61116f565b6101b961031336600461206a565b61132b565b61015a6103263660046120d1565b61159d565b6101e561033936600461211e565b80516020818301810180516099825292820191909301209152546001600160a01b031681565b6101c4600081565b6101b96103753660046120d1565b6115c8565b6101b9610388366004612083565b6115ee565b60006001600160e01b03198216637965db0b60e01b14806103be57506301ffc9a760e01b6001600160e01b03198316145b92915050565b6000805160206126888339815191526103dd8133611918565b60006099846040516103ef919061228c565b9081526040519081900360200190205483516001600160a01b039091169150819061041986610bcf565b5110156104af5760405162461bcd60e51b815260206004820152605360248201527f4e4654576f726c6445786368616e67652377697468647261775765617261626c60448201527f65733a20417661696c61626c6520746f6b656e7320646f6573206e6f74206d616064820152721d18da081b9d5b58995c881c1c9bdd9a591959606a1b608482015260a4015b60405180910390fd5b60005b84518110156105dc576001600160a01b03821663095ea7b3338784815181106104dd576104dd6122a8565b60200260200101516040518363ffffffff1660e01b81526004016105169291906001600160a01b03929092168252602082015260400190565b600060405180830381600087803b15801561053057600080fd5b505af1158015610544573d6000803e3d6000fd5b50505050816001600160a01b03166342842e0e3061055f3390565b888581518110610571576105716122a8565b60200260200101516040518463ffffffff1660e01b8152600401610597939291906122be565b600060405180830381600087803b1580156105b157600080fd5b505af11580156105c5573d6000803e3d6000fd5b5050505080806105d4906122f8565b9150506104b2565b50836040516105eb9190612313565b604051809103902085604051610601919061228c565b60405180910390206106103390565b6001600160a01b03167f69454817be03a09e18fbc9b8d17315e74bb888f91322c450aad20a0953c90c2a60405160405180910390a45050505050565b600060998460405161065e919061228c565b90815260405190819003602001812054609754635fd918e960e11b8352600483018690526001600160a01b0391821693508392839290911690600090839063bfb231d29060240160006040518083038186803b1580156106bd57600080fd5b505afa1580156106d1573d6000803e3d6000fd5b505050506040513d6000823e601f3d908101601f191682016040526106f9919081019061238e565b50505050505090506000609882604051610713919061228c565b908152604051908190036020018120546331a9108f60e11b8252915030906001600160a01b03871690636352211e90610754908b9060040190815260200190565b60206040518083038186803b15801561076c57600080fd5b505afa158015610780573d6000803e3d6000fd5b505050506040513d601f19601f820116820180604052508101906107a49190612447565b6001600160a01b0316146108175760405162461bcd60e51b815260206004820152603460248201527f4e4654576f726c6445786368616e6765236765745765617261626c653a20546f6044820152736b656e206973206e6f7420617661696c61626c6560601b60648201526084016104a6565b806001600160a01b0384166370a08231336040516001600160e01b031960e084901b1681526001600160a01b03909116600482015260240160206040518083038186803b15801561086757600080fd5b505afa15801561087b573d6000803e3d6000fd5b505050506040513d601f19601f8201168201806040525081019061089f9190612464565b10156109135760405162461bcd60e51b815260206004820152603860248201527f4e4654576f726c6445786368616e6765236765745765617261626c653a20496e60448201527f73756666696369656e7420746f6b656e2062616c616e6365000000000000000060648201526084016104a6565b8015610a4c576040516323b872dd60e01b81526001600160a01b038416906323b872dd90610949903390309086906004016122be565b602060405180830381600087803b15801561096357600080fd5b505af1158015610977573d6000803e3d6000fd5b505050506040513d601f19601f8201168201806040525081019061099b919061247d565b50604051632142170760e11b81526001600160a01b038616906342842e0e906109cc90309033908c906004016122be565b600060405180830381600087803b1580156109e657600080fd5b505af11580156109fa573d6000803e3d6000fd5b505050508087610a073390565b6001600160a01b03167fa0b9b460ed2fdaa248e8c7e3bd4ec9dfef7461499984880ace1a90fb29fa93e38c604051610a3f91906124cb565b60405180910390a4610af9565b604051632142170760e11b81526001600160a01b038616906342842e0e90610a7c90309033908c906004016122be565b600060405180830381600087803b158015610a9657600080fd5b505af1158015610aaa573d6000803e3d6000fd5b50505050600087610ab83390565b6001600160a01b03167fa0b9b460ed2fdaa248e8c7e3bd4ec9dfef7461499984880ace1a90fb29fa93e38c604051610af091906124cb565b60405180910390a45b505050505050505050565b600082815260656020526040902060010154610b208133611918565b610b2a838361197c565b505050565b600080516020612688833981519152610b488133611918565b610b5182611a02565b5050565b6001600160a01b0381163314610bc55760405162461bcd60e51b815260206004820152602f60248201527f416363657373436f6e74726f6c3a2063616e206f6e6c792072656e6f756e636560448201526e103937b632b9903337b91039b2b63360891b60648201526084016104a6565b610b518282611afd565b606060006001600160a01b0316609983604051610bec919061228c565b908152604051908190036020019020546001600160a01b03161415610c795760405162461bcd60e51b815260206004820152603e60248201527f4e4654576f726c6445786368616e676523676574417661696c61626c65546f6b60448201527f656e733a204e6f742076616c696420636f6c6c656374696f6e206e616d65000060648201526084016104a6565b6000609983604051610c8b919061228c565b908152604051908190036020018120546370a0823160e01b82523060048301526001600160a01b03169150819060009082906370a082319060240160206040518083038186803b158015610cde57600080fd5b505afa158015610cf2573d6000803e3d6000fd5b505050506040513d601f19601f82011682018060405250810190610d169190612464565b905060008167ffffffffffffffff811115610d3357610d33611e3e565b604051908082528060200260200182016040528015610d5c578160200160208202803683370190505b509050815b60006001600160a01b038516632f745c5930610d7e6001886124de565b6040516001600160e01b031960e085901b1681526001600160a01b039092166004830152602482015260440160206040518083038186803b158015610dc257600080fd5b505afa158015610dd6573d6000803e3d6000fd5b505050506040513d601f19601f82011682018060405250810190610dfa9190612464565b90508083610e096001856124de565b81518110610e1957610e196122a8565b602090810291909101015281610e2e816124f5565b9250505080610d61575095945050505050565b600080516020612688833981519152610e5a8133611918565b6097546001600160a01b031682816370a08231336040516001600160e01b031960e084901b1681526001600160a01b03909116600482015260240160206040518083038186803b158015610ead57600080fd5b505afa158015610ec1573d6000803e3d6000fd5b505050506040513d601f19601f82011682018060405250810190610ee59190612464565b1015610f695760405162461bcd60e51b815260206004820152604760248201527f4e4654576f726c6445786368616e6765236465706f7369744d6574617665727360448201527f65436f696e3a20496e73756666696369656e742062616c616e636520666f722060648201526619195c1bdcda5d60ca1b608482015260a4016104a6565b6040516323b872dd60e01b81526001600160a01b038216906323b872dd90610f99903390309088906004016122be565b602060405180830381600087803b158015610fb357600080fd5b505af1158015610fc7573d6000803e3d6000fd5b505050506040513d601f19601f82011682018060405250810190610feb919061247d565b50604051839033907fea9dbe2eec7d84be662bb67ba7253b15d76d2c3d2e23453fc6e9c92638aa36d290600090a3505050565b6000805160206126888339815191526110378133611918565b6000609984604051611049919061228c565b908152604051908190036020019020546001600160a01b031690508060005b84518110156110ff576001600160a01b0382166342842e0e3330888581518110611094576110946122a8565b60200260200101516040518463ffffffff1660e01b81526004016110ba939291906122be565b600060405180830381600087803b1580156110d457600080fd5b505af11580156110e8573d6000803e3d6000fd5b5050505080806110f7906122f8565b915050611068565b508360405161110e9190612313565b604051809103902085604051611124919061228c565b60405180910390206111333390565b6001600160a01b03167f9e30b601312cc8b5229fecc46aa087b921b520921fd700ff30d1bab5e21e9f2860405160405180910390a45050505050565b600054610100900460ff1680611188575060005460ff16155b6111a45760405162461bcd60e51b81526004016104a69061250c565b600054610100900460ff161580156111c6576000805461ffff19166101011790555b6111ce611b64565b6111e660008051602061268883398151915284611be8565b609780546001600160a01b0319166001600160a01b0386161790556019609a55604080516531b7b6b6b7b760d11b81526098600680830182905283519283900360269081018420600090819055637261726560e01b8552600480860185905286519586900360249081018720670de0b6b3a76400009055636570696360e01b8752908601859052865195869003018520671bc16d674ec800009055686c6567656e6461727960b81b85526009850184905285519485900360290185206729a2241af62c00009055656d797468696360d01b855291840192909252925191829003019020673782dace9d90000090555b8251811015611312576113008382815181106112f3576112f36122a8565b6020026020010151611a02565b8061130a816122f8565b9150506112d5565b508015611325576000805461ff00191690555b50505050565b6000805160206126888339815191526113448133611918565b6097546040516370a0823160e01b81523060048201526001600160a01b0390911690839082906370a082319060240160206040518083038186803b15801561138b57600080fd5b505afa15801561139f573d6000803e3d6000fd5b505050506040513d601f19601f820116820180604052508101906113c39190612464565b10156114495760405162461bcd60e51b815260206004820152604960248201527f4e4654576f726c6445786368616e67652377697468647261774d65746176657260448201527f7365436f696e3a20496e73756666696369656e742062616c616e636520666f7260648201526820776974686472617760b81b608482015260a4016104a6565b6001600160a01b03811663095ea7b3336040516001600160e01b031960e084901b1681526001600160a01b03909116600482015260248101869052604401602060405180830381600087803b1580156114a157600080fd5b505af11580156114b5573d6000803e3d6000fd5b505050506040513d601f19601f820116820180604052508101906114d9919061247d565b506001600160a01b03811663a9059cbb336040516001600160e01b031960e084901b1681526001600160a01b03909116600482015260248101869052604401602060405180830381600087803b15801561153257600080fd5b505af1158015611546573d6000803e3d6000fd5b505050506040513d601f19601f8201168201806040525081019061156a919061247d565b50604051839033907fd2199a38f54ad32259e236c99266ba70848fe0bc00db39770df92c87fcc1dde090600090a3505050565b60009182526065602090815260408084206001600160a01b0393909316845291905290205460ff1690565b6000828152606560205260409020600101546115e48133611918565b610b2a8383611afd565b6000609984604051611600919061228c565b908152604051908190036020018120546097546001600160a01b03918216935083928392919091169060009060999061163a908a9061228c565b908152604051908190036020019020546001600160a01b031614156116c75760405162461bcd60e51b815260206004820152603a60248201527f4e4654576f726c6445786368616e67652372657475726e5765617261626c653a60448201527f204e6f742076616c696420636f6c6c656374696f6e206e616d6500000000000060648201526084016104a6565b604051632142170760e11b81526001600160a01b038416906342842e0e906116f790339030908a906004016122be565b600060405180830381600087803b15801561171157600080fd5b505af1158015611725573d6000803e3d6000fd5b5050604051635fd918e960e11b815260048101899052600092506001600160a01b038516915063bfb231d29060240160006040518083038186803b15801561176c57600080fd5b505afa158015611780573d6000803e3d6000fd5b505050506040513d6000823e601f3d908101601f191682016040526117a8919081019061238e565b505050505050905060006098826040516117c2919061228c565b9081526020016040518091039020549050806000146118dc576000609a5460646117ec919061255a565b6117f6908361255a565b61180090836124de565b90506001600160a01b03841663a9059cbb336040516001600160e01b031960e084901b1681526001600160a01b03909116600482015260248101849052604401602060405180830381600087803b15801561185a57600080fd5b505af115801561186e573d6000803e3d6000fd5b505050506040513d601f19601f82011682018060405250810190611892919061247d565b508088336001600160a01b03167fc17dac52939c5e7e6976fe62e2f831d777cc2e62ae32e98da26f62b78c2941138d6040516118ce91906124cb565b60405180910390a450610af9565b600087336001600160a01b03167fc17dac52939c5e7e6976fe62e2f831d777cc2e62ae32e98da26f62b78c2941138c604051610af091906124cb565b611922828261159d565b610b515761193a816001600160a01b03166014611bf2565b611945836020611bf2565b60405160200161195692919061257c565b60408051601f198184030181529082905262461bcd60e51b82526104a6916004016124cb565b611986828261159d565b610b515760008281526065602090815260408083206001600160a01b03851684529091529020805460ff191660011790556119be3390565b6001600160a01b0316816001600160a01b0316837f2f8788117e7eff1d82e926ec794901d17c78024a50270940304540a733656f0d60405160405180910390a45050565b60008190506000816001600160a01b03166306fdde036040518163ffffffff1660e01b815260040160006040518083038186803b158015611a4257600080fd5b505afa158015611a56573d6000803e3d6000fd5b505050506040513d6000823e601f3d908101601f19168201604052611a7e91908101906125f1565b905082609982604051611a91919061228c565b90815260405190819003602001812080546001600160a01b03939093166001600160a01b0319909316929092179091557f6138f32936857fa7d26771677f8c3fecbffd8043543fa3616208e4fd4366432e90611af09083908690612626565b60405180910390a1505050565b611b07828261159d565b15610b515760008281526065602090815260408083206001600160a01b0385168085529252808320805460ff1916905551339285917ff6391f5c32d9c69d2a47ea670b442974b53935d1edc7fd64eb21e047a839171b9190a45050565b600054610100900460ff1680611b7d575060005460ff16155b611b995760405162461bcd60e51b81526004016104a69061250c565b600054610100900460ff16158015611bbb576000805461ffff19166101011790555b611bc3611d95565b611bcb611d95565b611bd3611d95565b8015611be5576000805461ff00191690555b50565b610b51828261197c565b60606000611c01836002612650565b611c0c90600261266f565b67ffffffffffffffff811115611c2457611c24611e3e565b6040519080825280601f01601f191660200182016040528015611c4e576020820181803683370190505b509050600360fc1b81600081518110611c6957611c696122a8565b60200101906001600160f81b031916908160001a905350600f60fb1b81600181518110611c9857611c986122a8565b60200101906001600160f81b031916908160001a9053506000611cbc846002612650565b611cc790600161266f565b90505b6001811115611d3f576f181899199a1a9b1b9c1cb0b131b232b360811b85600f1660108110611cfb57611cfb6122a8565b1a60f81b828281518110611d1157611d116122a8565b60200101906001600160f81b031916908160001a90535060049490941c93611d38816124f5565b9050611cca565b508315611d8e5760405162461bcd60e51b815260206004820181905260248201527f537472696e67733a20686578206c656e67746820696e73756666696369656e7460448201526064016104a6565b9392505050565b600054610100900460ff1680611dae575060005460ff16155b611dca5760405162461bcd60e51b81526004016104a69061250c565b600054610100900460ff16158015611bd3576000805461ffff19166101011790558015611be5576000805461ff001916905550565b600060208284031215611e1157600080fd5b81356001600160e01b031981168114611d8e57600080fd5b6001600160a01b0381168114611be557600080fd5b634e487b7160e01b600052604160045260246000fd5b604051601f8201601f1916810167ffffffffffffffff81118282101715611e7d57611e7d611e3e565b604052919050565b600067ffffffffffffffff821115611e9f57611e9f611e3e565b50601f01601f191660200190565b6000611ec0611ebb84611e85565b611e54565b9050828152838383011115611ed457600080fd5b828260208301376000602084830101529392505050565b60008060008060808587031215611f0157600080fd5b8435611f0c81611e29565b93506020850135611f1c81611e29565b925060408501359150606085013567ffffffffffffffff811115611f3f57600080fd5b8501601f81018713611f5057600080fd5b611f5f87823560208401611ead565b91505092959194509250565b600082601f830112611f7c57600080fd5b611d8e83833560208501611ead565b600067ffffffffffffffff821115611fa557611fa5611e3e565b5060051b60200190565b60008060408385031215611fc257600080fd5b823567ffffffffffffffff80821115611fda57600080fd5b611fe686838701611f6b565b9350602091508185013581811115611ffd57600080fd5b85019050601f8101861361201057600080fd5b803561201e611ebb82611f8b565b81815260059190911b8201830190838101908883111561203d57600080fd5b928401925b8284101561205b57833582529284019290840190612042565b80955050505050509250929050565b60006020828403121561207c57600080fd5b5035919050565b60008060006060848603121561209857600080fd5b833567ffffffffffffffff8111156120af57600080fd5b6120bb86828701611f6b565b9660208601359650604090950135949350505050565b600080604083850312156120e457600080fd5b8235915060208301356120f681611e29565b809150509250929050565b60006020828403121561211357600080fd5b8135611d8e81611e29565b60006020828403121561213057600080fd5b813567ffffffffffffffff81111561214757600080fd5b61215384828501611f6b565b949350505050565b6020808252825182820181905260009190848201906040850190845b8181101561219357835183529284019291840191600101612177565b50909695505050505050565b6000806000606084860312156121b457600080fd5b83356121bf81611e29565b92506020848101356121d081611e29565b9250604085013567ffffffffffffffff8111156121ec57600080fd5b8501601f810187136121fd57600080fd5b803561220b611ebb82611f8b565b81815260059190911b8201830190838101908983111561222a57600080fd5b928401925b8284101561225157833561224281611e29565b8252928401929084019061222f565b80955050505050509250925092565b60005b8381101561227b578181015183820152602001612263565b838111156113255750506000910152565b6000825161229e818460208701612260565b9190910192915050565b634e487b7160e01b600052603260045260246000fd5b6001600160a01b039384168152919092166020820152604081019190915260600190565b634e487b7160e01b600052601160045260246000fd5b600060001982141561230c5761230c6122e2565b5060010190565b815160009082906020808601845b8381101561233d57815185529382019390820190600101612321565b50929695505050505050565b600082601f83011261235a57600080fd5b8151612368611ebb82611e85565b81815284602083860101111561237d57600080fd5b612153826020830160208701612260565b600080600080600080600060e0888a0312156123a957600080fd5b875167ffffffffffffffff808211156123c157600080fd5b6123cd8b838c01612349565b985060208a0151975060408a0151965060608a0151955060808a015191506123f482611e29565b60a08a01519194508082111561240957600080fd5b6124158b838c01612349565b935060c08a015191508082111561242b57600080fd5b506124388a828b01612349565b91505092959891949750929550565b60006020828403121561245957600080fd5b8151611d8e81611e29565b60006020828403121561247657600080fd5b5051919050565b60006020828403121561248f57600080fd5b81518015158114611d8e57600080fd5b600081518084526124b7816020860160208601612260565b601f01601f19169290920160200192915050565b602081526000611d8e602083018461249f565b6000828210156124f0576124f06122e2565b500390565b600081612504576125046122e2565b506000190190565b6020808252602e908201527f496e697469616c697a61626c653a20636f6e747261637420697320616c72656160408201526d191e481a5b9a5d1a585b1a5e995960921b606082015260800190565b60008261257757634e487b7160e01b600052601260045260246000fd5b500490565b7f416363657373436f6e74726f6c3a206163636f756e74200000000000000000008152600083516125b4816017850160208801612260565b7001034b99036b4b9b9b4b733903937b6329607d1b60179184019182015283516125e5816028840160208801612260565b01602801949350505050565b60006020828403121561260357600080fd5b815167ffffffffffffffff81111561261a57600080fd5b61215384828501612349565b604081526000612639604083018561249f565b905060018060a01b03831660208301529392505050565b600081600019048311821515161561266a5761266a6122e2565b500290565b60008219821115612682576126826122e2565b50019056fea49807205ce4d355092ef5a8a18f56e8913cf4a201fbe287825b095693c21775a2646970667358221220c8805866d526afe4298ee99dccbb0f72904bdd2962c8c54ceb2663f75267f86064736f6c63430008090033",
    "sourcePath": "/home/matthew/Development/Client_Projects/Doug_McConnaughhay/nftworld-exchange/contracts/NFTWorldExchangeV1.sol",
    "compiler": {
        "name": "solc",
        "version": "0.8.9+commit.e5eed63a"
    },
    "functionHashes": {
        "ADMIN_ROLE()": "75b238fc",
        "DEFAULT_ADMIN_ROLE()": "a217fddf",
        "addCollectionSupport(address)": "35053e70",
        "base_percentage()": "18742703",
        "depositMetaverseCoin(uint256)": "5e86f7b2",
        "depositWearables(string,uint256[])": "72129481",
        "exchangeRates(string)": "43225acd",
        "getAvailableTokens(string)": "519035df",
        "getRoleAdmin(bytes32)": "248a9ca3",
        "getWearable(string,uint256,uint256)": "2ebe1a9d",
        "grantRole(bytes32,address)": "2f2ff15d",
        "hasRole(bytes32,address)": "91d14854",
        "initialize(address,address,address[])": "77a24f36",
        "metaverseCoinAddress()": "1b51fbec",
        "onERC721Received(address,address,uint256,bytes)": "150b7a02",
        "renounceRole(bytes32,address)": "36568abe",
        "returnWearable(string,uint256,uint256)": "ed71b59d",
        "revokeRole(bytes32,address)": "d547741f",
        "supportsInterface(bytes4)": "01ffc9a7",
        "wearableContracts(string)": "99a329e1",
        "withdrawMetaverseCoin(uint256)": "8dcb097b",
        "withdrawWearables(string,uint256[])": "16bc79e3"
    },
    "gasEstimates": {
        "creation": {
            "codeDepositCost": "1989800",
            "executionCost": "2105",
            "totalCost": "1991905"
        },
        "external": {
            "ADMIN_ROLE()": "infinite",
            "DEFAULT_ADMIN_ROLE()": "283",
            "addCollectionSupport(address)": "infinite",
            "base_percentage()": "2385",
            "depositMetaverseCoin(uint256)": "infinite",
            "depositWearables(string,uint256[])": "infinite",
            "exchangeRates(string)": "infinite",
            "getAvailableTokens(string)": "infinite",
            "getRoleAdmin(bytes32)": "2467",
            "getWearable(string,uint256,uint256)": "infinite",
            "grantRole(bytes32,address)": "infinite",
            "hasRole(bytes32,address)": "2697",
            "initialize(address,address,address[])": "infinite",
            "metaverseCoinAddress()": "2449",
            "onERC721Received(address,address,uint256,bytes)": "infinite",
            "renounceRole(bytes32,address)": "29111",
            "returnWearable(string,uint256,uint256)": "infinite",
            "revokeRole(bytes32,address)": "infinite",
            "supportsInterface(bytes4)": "450",
            "wearableContracts(string)": "infinite",
            "withdrawMetaverseCoin(uint256)": "infinite",
            "withdrawWearables(string,uint256[])": "infinite"
        },
        "internal": {
            "_addCollectionSupport(address)": "infinite"
        }
    }
}